:100000000C9434000C9451000C9451000C94510049
:100010000C9451000C9451000C9451000C9451001C
:100020000C9451000C9451000C9451000C9451000C
:100030000C9451000C9451000C9451000C945100FC
:100040000C945E000C9451000C9451000C945100DF
:100050000C9451000C9451000C9451000C945100DC
:100060000C9451000C94510011241FBECFEFD8E026
:10007000DEBFCDBF11E0A0E0B1E0EEEDF1E002C0E7
:1000800005900D92A230B107D9F711E0A2E0B1E0DE
:1000900001C01D92A630B107E1F70E94CD000C947B
:1000A000ED000C94000015B8209A81E085BB92E029
:1000B00095BD80936E00789485BD08951F920F9230
:1000C0000FB60F9211242F933F934F935F936F932B
:1000D0007F938F939F93AF93BF93EF93FF93809101
:1000E000010185B9809100018F5F8093000181112A
:1000F00009C0809104018093050160E081E091E0F6
:100100000E94A9009091050180910001981305C0FB
:1001100060E081E091E00E94B500FF91EF91BF9116
:10012000AF919F918F917F916F915F914F913F918F
:100130002F910F900FBE0F901F901895FC012081FA
:1001400081E090E0062E01C0880F0A94EAF782232E
:100150000895FC01408121E030E0062E01C0220F0D
:100160000A94EAF7422B40830895FC01408121E084
:1001700030E0062E01C0220F0A94EAF720952423CE
:1001800020830895009741F0E7E8F3E13197F1F714
:1001900000C000000197F6CF08950E945300C1E00F
:1001A000D0E080910201909103018E3F910534F4DB
:1001B000823091052CF4C1E0D0E002C0CFEFDFEF38
:1001C0008C0F9D1F90930301809302018093040183
:0E01D00085E090E00E94C200E4CFF894FFCFDB
:0201DE00FF011F
:00000001FF
