:1000000012C02CC02BC02AC029C028C027C026C0BF
:1000100025C093C123C022C021C020C050C11EC032
:100020001DC01CC01BC011241FBECFE5D4E0DEBF25
:10003000CDBF10E0A0E6B0E0ECE0F6E002C0059035
:100040000D92A236B107D9F710E0A2E6B0E001C0E8
:100050001D92A936B107E1F702D0D6C2D1CFCF9316
:10006000DF93CDB7DEB79DD0EED080E005D182E141
:1000700090E00BD081E000D182E190E006D082E0F8
:10008000FBD082E190E001D0F0CFCF93DF93CDB7EA
:10009000DEB760970FB6F894DEBF0FBECDBF988B6A
:1000A0008F8771C080E090E0A0E8BFE389839A83E6
:1000B000AB83BC8320E030E04AE753E469817A8176
:1000C0008B819C8116D2DC01CB018D839E83AF8313
:1000D000B88720E030E040E85FE36D817E818F816A
:1000E000988586D188232CF481E090E09A878987CF
:1000F0003BC020E03FEF4FE757E46D817E818F8169
:100100009885F3D118163CF520E030E040E251E448
:1001100069817A818B819C81ECD1DC01CB01BC01AE
:10012000CD016AD1DC01CB019A8789870FC089E1B3
:1001300090E09C878B878B859C850197F1F79C8746
:100140008B8789859A8501979A87898789859A857A
:10015000009769F713C06D817E818F8198854CD19E
:10016000DC01CB019A87898789859A859E878D874F
:100170008D859E850197F1F79E878D878F8598895C
:100180000197988B8F878F859889009709F08ACF80
:1001900060960FB6F894DEBF0FBECDBFDF91CF9152
:1001A0000895CF93DF9300D0CDB7DEB787E390E01B
:1001B00027E330E0F90120812860FC01208387E3F8
:1001C00090E027E330E0F90120812260FC012083E8
:1001D00087E390E027E330E0F90120812460FC010F
:1001E00020831A82198213C08981882F90E08A594E
:1001F0009F4F2A81FC0120838981882F90E08D59AF
:100200009F4F2A81FC01208389818F5F89838981A7
:10021000833050F388E590E021E0FC01208389E5FC
:1002200090E021E0FC01208383E590E023E530E0CD
:10023000F90120812160FC01208378940F900F90B8
:10024000DF91CF910895CF93DF93CDB7DEB787E2EB
:1002500090E027E230E0F90120812062FC01208358
:1002600086E290E026E230E0F90120812F68FC016F
:100270002083DF91CF910895CF93DF931F92CDB765
:10028000DEB7898389818093620087E290E027E26C
:1002900030E0F9012081322F38732981232BFC01B2
:1002A0002083789486E290E026E230E0F901208114
:1002B0002864FC0120830F90DF91CF9108951F9255
:1002C0000F9200905F000F9211242F933F938F9312
:1002D0009F93EF93FF93CF93DF9300D01F92CDB7FF
:1002E000DEB7198285E290E0FC018081882F90E0E2
:1002F0009B838A838A81898380916200882F90E022
:100300002A813B812B30310510F0298101C020E08A
:100310008D599F4FFC0120830F900F900F90DF911C
:10032000CF91FF91EF919F918F913F912F910F90DE
:1003300000925F000F901F9018951F920F920090EF
:100340005F000F9211242F938F939F93EF93FF934E
:10035000CF93DF93CDB7DEB788E390E020916000C4
:10036000FC012083809161008F5F80936100809108
:100370006100882379F48091630080936600809106
:1003800064008093670080916500809368008EE030
:10039000809360009091660080916100981729F425
:1003A00080916000877F80936000909167008091CA
:1003B0006100981729F4809160008D7F8093600020
:1003C0009091680080916100981729F480916000F5
:1003D0008B7F80936000DF91CF91FF91EF919F9190
:1003E0008F912F910F9000925F000F901F901895A2
:1003F0002FD008F481E0089557D088F09F5790F0EF
:10040000B92F9927B751A0F0D1F0660F771F881F39
:10041000991F1AF0BA95C9F712C0B13081F05ED0B9
:10042000B1E008955BC0672F782F8827B85F39F057
:10043000B93FCCF3869577956795B395D9F73EF498
:1004400090958095709561957F4F8F4F9F4F089540
:10045000990F0008550FAA0BE0E8FEEF16161706D5
:10046000E807F907C0F012161306E407F50798F03D
:10047000621B730B840B950B39F40A2661F0232B56
:10048000242B252B21F408950A2609F4A140A695D2
:100490008FEF811D811D089557FD9058440F551F02
:1004A00059F05F3F71F04795880F97FB991F61F0F6
:1004B0009F3F79F087950895121613061406551F6D
:1004C000F2CF4695F1DF08C0161617061806991FD9
:1004D000F1CF86957105610508940895E894BB27CE
:1004E00066277727CB0197F90895B2DF08F48FEFDD
:1004F00008950BD078C069D028F06ED018F09523FD
:1005000009F05AC05FC01124EACFC6DFA0F3959F5F
:10051000D1F3950F50E0551F629FF001729FBB27EA
:10052000F00DB11D639FAA27F00DB11DAA1F649F96
:100530006627B00DA11D661F829F2227B00DA11D49
:10054000621F739FB00DA11D621F839FA00D611DCF
:10055000221F749F3327A00D611D231F849F600DF0
:10056000211D822F762F6A2F11249F5750408AF029
:10057000E1F088234AF0EE0FFF1FBB1F661F771FB5
:10058000881F91505040A9F79E3F510570F014C04C
:10059000A6CF5F3FECF3983EDCF3869577956795A1
:1005A000B795F795E7959F5FC1F7FE2B880F911DD3
:1005B0009695879597F9089597F99F6780E870E079
:1005C00060E008959FEF80EC089500240A941616C9
:1005D000170618060906089500240A941216130631
:1005E000140605060895092E0394000C11F48823BF
:1005F00052F0BB0F40F4BF2B11F460FF04C06F5FDB
:0C0600007F4F8F4F9F4F0895F894FFCF5D
:02060C000EFFDF
:00000001FF
